:100000003EC0A6C157C056C055C054C053C052C010
:1000100051C050C04FC04EC04DC04CC04BC0090273
:100020001200010100A0050904000000000000000A
:1000300012011001FF000008030431C6050101028E
:1000400000011A036900320063002D00740069008A
:100050006E0079002D007500730062001A035400D1
:1000600069006C006C0020004800610072006200B2
:10007000610075006D00040309040100FF8E112466
:100080001FBECFE5D1E0DEBFCDBF10E0A0E6B0E0FF
:10009000E8E2FAE002C005900D92A636B107D9F762
:1000A00020E0A6E6B0E001C01D92A939B207E1F751
:1000B00087D4B8C4A5CFCF93DF9360917F006350FE
:1000C00067FD14C020917C008CE090E0821B9109B8
:1000D000EC01CD57DF4F80917B008D3209F451C088
:1000E00080917A0087FD91C010927F00809161001D
:1000F00084FF3AC0C0916000CF3FB1F1C93008F42D
:1001000068C088EF8C0F8093600090916E0088E843
:10011000892780936E00C8E080917A0087FD9DC09A
:1001200020917D0030917E0086FF66C0AFE6B0E092
:10013000F9018C2F94919D9331968150D9F78FEFCF
:100140008C0F90E00196280F391F30937E0020938A
:100150007D006C2F8FE690E0F7D084E08C0F8C3020
:1001600009F046C08093610094E186B3857031F454
:100170009150D9F71092800010927900DF91CF91C1
:100180000895683009F0B0CF83EC80936E008AE563
:100190008093610010927A008881807609F03FC0D8
:1001A0008A81109277009981911144C01092780051
:1001B00027E730E082E030937E0020937D009F812E
:1001C000911104C09E81981708F4892F80936000D4
:1001D0008BCF1092600090916E0088E88927809301
:1001E0006E00C11199CF60E08FE690E0ADD084E061
:1001F0009FEF90936000B6CFD901EFE6F0E08C2F2F
:100200009D9191938150E1F79ACFCE0193D38F3F87
:1002100001F1882309F468CF1092600065CFCE0108
:1002200085D28F3F61F6988197FD2CC090E890931E
:100230007A00CCCF953001F1963031F1983081F1D0
:10024000993091F181E09A3009F080E027E730E0C1
:10025000B2CF8EE18093610047CF6C2F8FE690E0A4
:100260001CD3C82F893008F474CF8FEF80936000BF
:100270008EE18093610078CF8093800027E730E0A3
:1002800080E099CF8E81D2CF9B819130D9F092308E
:1002900089F09330F9F080E090E490937A008FCF6A
:1002A00022E830E081E087CF8093820027E730E0CA
:1002B00080E081CF8EE190E090937E0080937D007E
:1002C00082E1EACF80E390E090937E0080937D000E
:1002D00082E1E2CF811108C086E790E090937E0032
:1002E00080937D0084E0D8CF813051F0823099F640
:1002F00082E490E090937E0080937D008AE1CCCFF1
:100300008CE590E090937E0080937D008AE1C4CFDD
:1003100085B7836085BF8BB780648BBF0895A82F96
:10032000B92F80E090E041E050EA609530E009C0EC
:100330002D9182279795879510F084279527305E19
:10034000C8F36F5FA8F30895EADF8D939D93089536
:10035000CF93CFB7CF93C395B09BE9F7B09B09C0BC
:10036000B09B07C0B09B05C0B09B03C0B09B01C051
:10037000A1C0DF93C0917C00DD27CD57DF4FB09B3C
:1003800002C0DF91EBCF2F930F931F9306B32FEF94
:1003900000FB20F94F933F9316B34FEF012700FB6B
:1003A00021F93BE031C04E7F012F16B3216028C0F8
:1003B000102F4D7F2260000006B329C04B7F2460C0
:1003C000012F000016B32BC016B3477F28602AC048
:1003D0004F7E06B320612CC04F7D16B320622FC024
:1003E0004F7B06B3206432C0422706B349934FEFD8
:1003F0000000102710FB20F916B31570C9F1297FF2
:1004000091F2012700FB21F906B3237F89F23150D5
:1004100058F1102710FB22F916B3277E79F2012735
:1004200000FB23F92F7C81F206B3102710FB24F97F
:100430002F7971F200C016B3012700FB25F92F7345
:1004400059F200C006B3102710FB26F9223040F203
:1004500000C016B3012700FB27F9243028F64F7798
:10046000206816B30000F9CF10E41ABF002717C0A8
:100470003B503195C31BD04010E41ABF0881033CA8
:10048000E9F00B34D9F0209179001981110F121382
:10049000EDCF093641F10D3211F0013E39F70093ED
:1004A00081003F914F911F910F912F91DF91CAB71A
:1004B000C6FD51CFCF91CFBFCF911895209181002C
:1004C000222379F310917F00112311F5343012F1BA
:1004D00030937F0020937B0010917C003BE0311B28
:1004E00030937C0017C000917F0001308CF40AE546
:1004F0003091610034FD10C000936100CEE6D0E081
:100500000FC02795A8F45150A9F4220F0000F9CF8D
:100510004AE503C042ED01C0432FC4E1D0E032E020
:1005200017B31560C09A17BB08B320E415E05F93BA
:10053000012756E008BB279520F4515021F4220FE3
:10054000F9CF012756E000003B5A08BBD0F22795AF
:1005500028F4515029F4220F0000F9CF012756E06A
:10056000279508BB20F4515021F4220FF9CF012721
:1005700056E02991332308BB21F60A7F10918000B1
:10058000110FC651D04008BB11F01093790010E450
:100590001ABF016017B31A7F402F4A7F5F9100C0D6
:1005A00000C008BB17BB48BB7CCF80916200909114
:1005B00063000197F1F7BD98C59AB59BFECF809176
:1005C0006400909165000197F1F78091620090912D
:1005D00063000197F1F7BD9AC598809164009091EE
:1005E00065000197F1F70895B998C19A0895B99AED
:1005F000C19880916200909163000197F1F7BD98D6
:10060000C59AB59BFECF80916400909165000197DB
:10061000F1F7EACF0F931F93CF93DF93082F10E0EA
:10062000C7E0D0E005C0B99AC198BFDF219768F054
:1006300098010C2E02C0359527950A94E2F720FF09
:10064000F2CFD2DFB2DF219798F7CEDF8091620040
:10065000909163000197F1F7BD98C59AB59BFECFC5
:1006600080916400909165000197F1F786B3E09165
:100670006200F09163003197F1F7BD9AC598E0915F
:100680006400F09165003197F1F78695817091E0F3
:100690008927DF91CF911F910F910895CF93DF9319
:1006A000D82FA2DF80916200909163000197F1F74B
:1006B000BD9AC59880916400909165000197F1F70B
:1006C00028E0C0E080916200909163000197F1F70B
:1006D000BD98C59AB59BFECF80916400909165004E
:1006E0000197F1F7CC0FB199C160809162009091B0
:1006F00063000197F1F7BD9AC598809164009091CD
:1007000065000197F1F72150E9F6D11108C0B99AB7
:10071000C1984BDF69DF8C2FDF91CF91089564DFA3
:1007200044DF62DF8C2FDF91CF9108951F93CF9329
:10073000DF93FC0186E690E090937E0080937D003D
:100740009181923009F484C0EF01933090F49923A1
:1007500009F473C0913009F062C044E050E06AE7E8
:1007600070E086E690E04ED184E0DF91CF911F915A
:100770000895933009F458C0983008F050C014819F
:10078000110F828180FD116090FD11C02DDF8091DD
:100790006200909163000197F1F7BD98C59AB59BEF
:1007A000FECF80916400909165000197F1F7B99AAE
:1007B000C19880916200909163000197F1F7BD9A12
:1007C000C59880916400909165000197F1F7812FA1
:1007D00021DF882309F456C081E080936A002E81CE
:1007E0003F8130936D0020936C00898180936B0072
:1007F00081FF04C02115310509F440C081E0232B9D
:1008000009F480E08195DF91CF911F91089596952D
:1008100087959093630080936200892B39F180E083
:10082000DF91CF911F91089580916A0080936600B7
:1008300081E0DF91CF911F910895828180936600BE
:1008400083818093670082E0DF91CF911F910895AB
:100850008281938190936500809364000097B9F63C
:1008600081E090E0909365008093640081E090E0E7
:10087000909363008093620080E0D2CFB8DE2E8137
:100880003F81BCCF82E080936A0010926D0010928D
:100890006C00ADDE2E813F81B1CFDF92EF92FF92EF
:1008A0000F931F93CF93DF938C01D62E80916A0014
:1008B000813079F0462F50E060E070E0C801ABD0A5
:1008C0008D2DDF91CF911F910F91FF90EF90DF90D1
:1008D0000895C0916C00D0916D00862F90E0C817EC
:1008E000D90708F4DC2EDD20C9F0EE24EA94ED0CE3
:1008F000F12C8FEFE81AF80AE00EF11E2197D09341
:100900006D00C0936C0081E0209709F080E0C6DEA6
:10091000F80181938F01EE15FF0581F780916B003F
:1009200081FFCECF80916C0090916D00892B41F6B4
:100930005EDEC6CFDF92EF92FF920F931F93CF93AD
:10094000DF93D62E20916A00213071F0462F50E0BF
:1009500060E070E060D08D2DDF91CF911F910F91FD
:10096000FF90EF90DF900895C0916C00D0916D00E2
:10097000262F30E0C217D30708F4DC2EDD20A1F0CB
:100980008C0121978FEF8D0D7E01E81AF10801C0CF
:100990002197D0936D00C0936C00F80181918F0175
:1009A00039DECE15DF05A1F780916B0081FFD3CF33
:1009B00080916C0090916D00892B69F618DECBCF89
:1009C0009EE088E10FB6F894A89581BD0FBE91BD59
:1009D000B998C19ABD98C59A10926D0010926C009A
:1009E00088B38A7F88BB87B3856087BB80E49CE936
:1009F0000197F1F787B38A7F87BB8ADC7894A89543
:100A00005ADBFDCFFB01DC0102C005900D92415085
:100A10005040D8F70895DC0101C06D93415050401B
:080A2000E0F70895F894FFCF00
:060A2800FF5A05000A0060
:00000001FF
