:100000003EC058C084C056C055C054C053C052C032
:1000100051C050C04FC04EC04DC04CC04BC0090273
:1000200012000101008064090400000000000000CB
:1000300012011001FF000008030431C60102010291
:1000400003011A036900320063002D007400690087
:100050006E0079002D007500730062001A035400D1
:1000600069006C006C0020004800610072006200B2
:10007000610075006D00040309040100FF8E112466
:100080001FBECFE5D2E0DEBFCDBF10E0A0E6B0E0FE
:10009000E2EEFCE002C005900D92A037B107D9F75F
:1000A00020E0A0E7B0E001C01D92A43AB207E1F75A
:1000B000C5D415C6A5CFA82FB92F80E090E041E0A8
:1000C00050EA609530E009C02D9182279795879579
:1000D00010F084279527305EC8F36F5FA8F308956A
:1000E000EADF8D939D930895A6E088279927AA9526
:1000F00069F00197E1F3B399FCCFB39BFECF81E0A8
:100100009927A6B3019611F0A871D9F70895CF9356
:10011000CFB7CF93C395B39BE9F7B39B0BC0B39B0A
:1001200009C0B39B07C0B39B05C0B39B03C0B39B7F
:1001300001C0D3C00F92DF93C0918700DD27C25763
:10014000DF4F012EB39B03C0DF910F90E6CF2F93BB
:100150000F931F934F932FEF4F6F06B303FB20F9BD
:100160005F933F9350E03BE065C016B301265029F2
:1001700053FDC89556B3012703FB25F92F7306B32A
:10018000B1F05027102713FB26F906B22230F0F009
:1001900000C016B3012703FB27F90126502906B238
:1001A0002430E8F54F77206816B30000F6CF5027CB
:1001B0004F7D206206B2102F000000C006B300265B
:1001C0005029102713FB26F906B2E2CF4F7B06B366
:1001D000206400C0DACF01265029187106B269F1F7
:1001E0004E7F2160012F16B328C0002650294D7F75
:1001F00006B22260102F29C0012650294B7F06B27B
:100200002460012F2DC016B301265029477F286096
:10021000000006B22EC04F7E06B3206130C04227D8
:1002200006B3499300265029102706B24FEF13FB5F
:1002300020F9297F16B379F2187159F10126502956
:1002400006B2012703FB21F9237F06B371F20026D2
:1002500050293150D0F006B2102713FB22F9277E27
:1002600016B351F201265029012703FB06B223F9E8
:100270002F7C49F2000006B3102713FB24F9002657
:10028000502906B22F7939F270CF10E21ABF002739
:1002900017C03B503195C31BD04010E21ABF0881F4
:1002A000033CF9F00B34E9F0209185001981110F1E
:1002B0001213EDCF093651F10D3211F0013E39F72D
:1002C00000938C003F915F914F911F910F912F915F
:1002D000DF910F90CAB7C5FD1DCFCF91CFBFCF9192
:1002E000189520918C00222369F310918A00112324
:1002F00021F5343022F130938A002093860010914A
:1003000087003BE0311B3093870019C000918A00C1
:1003100001309CF40AE53091610034FD11C0009376
:100320006100CAE7D0E010C0052710E000C021C07E
:10033000052710E0C89508BB14C03AE501C032EDAE
:10034000032EC0E0D0E032E017B31861C39A08B3BF
:1003500017BB58E120E84FEF20FF052708BB279582
:1003600017951C3F28F700004552B0F720FF0527DE
:10037000279508BB17951C3FB8F629913A9561F768
:10038000077E10918B00110F08BBC250D04011F0B6
:100390001093850010E21ABF086017B3177E402F34
:1003A000477E54E05A95F1F708BB17BB48BB8ACF8C
:1003B000CF93DF9360918A00635067FDAEC0809158
:1003C0008700CCE0D0E0C81BD109C257DF4F809135
:1003D00086008D3209F090C0683009F09CC083EC33
:1003E00080937A008AE58093610010927100888181
:1003F000807639F0CE01E7D1982F8F3F09F46BC09A
:1004000071C09A81109283008981811106C0109277
:10041000840023E830E092E059C0853019F49093CD
:100420008B0046C08630F1F58B81813019F480E372
:1004300090E004C0823049F48EE190E0909389000E
:100440008093880080E492E12AC0833031F59111D5
:1004500009C086E790E0909389008093880080E44B
:1004600094E01DC0913019F48CE590E004C0923006
:1004700049F482E490E0909389008093880080E4BE
:100480009AE10DC0933049F486E690E0909389009C
:100490008093880080E09AE002C080E490E080933E
:1004A000710020C0883079F0893031F490938D004C
:1004B00023E830E090E00AC091E08A3009F090E053
:1004C00023E830E003C02DE830E091E0309389006C
:1004D0002093880007C0888187FD9E8180E88093F3
:1004E000710007C08F81811104C08E81891708F4C3
:1004F000982F909360000FC08091710087FF0BC010
:10050000CE0127D18F3F21F48EE18093610003C09B
:1005100081111092600010928A008091610084FF26
:1005200056C0809160008F3F09F451C0C82F8930B8
:1005300008F0C8E08C1B8093600090917A0088E8F6
:10054000892780937A00CC2389F12091710027FFBD
:1005500008C06C2F8BE790E0BBD0C82F893088F59E
:1005600025C0809188009091890026FF0BC0ABE7E1
:10057000B0E0FC012C2F280F34913D9331962E13BF
:10058000FBCF09C0DC01EBE7F0E02C2F2E0F3D91F3
:1005900031932E13FCCF2FEF2C0F30E02F5F3F4F06
:1005A000820F931F90938900809388006C2F8BE7B4
:1005B00090E096DDCC5FCC3041F08FEF809360000F
:1005C00004C08FEF80936000CEE1C093610084E1AE
:1005D00096B3987131F48150D9F710928B00109234
:1005E0008500C1E08111C0E0809170008C1729F076
:1005F000C11101C097D1C0937000DF91CF910895D0
:10060000AC9A8BB780628BBF0895E0916200F09145
:1006100063003197F1F7882321F0BA98B29BFECF9F
:1006200001C0BA9A80916400909165000197F1F73A
:100630000895B8980895B89A81E0E7DFFACF0F934C
:100640001F93CF93DF93C7E0D0E0082F10E0C801DD
:100650000C2E02C0959587950A94E2F780FF02C0A0
:10066000E8DF01C0B89A81E0D0DF80E0CEDF2197DB
:1006700070F7DFDF81E0C9DFC6B380E0C6DF8C2F13
:1006800080958170DF91CF911F910F9108951F93F5
:10069000CF93DF93182FCDDF80E0B7DFD8E0C0E045
:1006A00081E0B3DFCC0FB099C16080E0AEDFD15004
:1006B000B9F7112311F0BDDF01C0B89A81E0A5DFC1
:1006C00080E0A3DFB6DF8C2FDF91CF911F910895DB
:1006D0000F931F93CF93DF93082F162F80917600EF
:1006E000462F50E0813059F5209178003091790003
:1006F0002417350708F4122F802FEC018C2F801B54
:10070000811788F4209178003091790021503109C7
:10071000309379002093780081E0232B09F080E06A
:10072000B6DF8993EBCF8091770081FF0CC0809179
:10073000780090917900892B31F47DDF04C060E06E
:1007400070E0802FAFD2812FDF91CF911F910F9159
:1007500008950F931F93CF93DF93162F2091760068
:10076000462F50E0213031F520917800309179000A
:100770002417350708F4122F082FEC018C2F801B4B
:10078000811760F48091780090917900019790939F
:10079000790080937800899152DFF0CF80917700C3
:1007A00081FF0BC08091780090917900892B29F40A
:1007B00042DF03C060E070E075D2812FDF91CF91FE
:1007C0001F910F9108958F929F92AF92BF92CF92F7
:1007D000DF92EF92FF921F93CF93DF93EC0182E7BA
:1007E00090E0909389008093880099819230E9F09D
:1007F00070F4992391F0913009F087C044E050E003
:100800006AE770E082E790E044D284E07FC09330F2
:1008100009F475C09830F0F178C08A818093720035
:100820008B818093730082E071C06A817B8180E05C
:1008300090E022E736E040E050E0ABD149015A01B8
:10084000C501B401685A7D4F8F4F9F4F20EB34E0B4
:1008500040E050E07AD12830310538F481E090E072
:10086000909365008093640006C02750310930934F
:1008700065002093640080916400909165009695D6
:100880008795009711F481E090E090936300809346
:1008900062003BC0C19A1C81110F8A8180FD1160EA
:1008A000898180FD03C0C5DE81E0AFDEB89A80E0BB
:1008B000ACDE812FC4DE811108C082E08093760017
:1008C000109279001092780010C081E08093760039
:1008D0008E819F8190937900809378002981209365
:1008E000770021FF03C0892B09F4A5DEC19881E0C0
:1008F0002E813F81232B09F480E0819507C08091F0
:1009000076008093720081E001C080E0DF91CF919A
:100910001F91FF90EF90DF90CF90BF90AF909F908E
:100920008F900895DF92EF92FF920F931F93CF93D2
:10093000DF9308E010E0C0E0D0E8DD2EDC0ED1BE91
:10094000D3DB7C0184E3E81689E0F8060CF4CD2DB6
:10095000D6950150110989F78FEF8C0F81BF0C2FAD
:1009600010E00F5F1F4F21B730E0021713078CF024
:10097000BBDB8453994097FF03C091958195910902
:100980008E159F0514F4C1B77C0181B78F5F81BFBD
:10099000EACFC1BF61B780E090E093D100B600FE1E
:1009A00045C0CFB5D0E060E380E290E08AD1CE01CF
:1009B00064E670E0B6D0CB010AE010E0B801B1D037
:1009C00060E3680F81E290E07CD1CE01B801A9D04C
:1009D000C82FCB01B801A5D060E3680F82E290E098
:1009E00070D160E36C0F83E290E06BD180E290E025
:1009F00060D190E0909369008093680081E290E07C
:100A000058D190E090936B0080936A0082E290E06E
:100A100050D190E090936D0080936C0083E290E061
:100A200048D190E090936F0080936E00DF91CF915A
:100A30001F910F91FF90EF90DF90089520E030E03C
:100A400080E80FB6F89486BD26BD0FBE80E090E02A
:100A500030D18F3F09F081BF80E290E02AD1182F7A
:100A600081E290E026D1D82F82E290E022D1C82FF7
:100A700083E290E01ED110531A3008F04FC0D053DB
:100A8000DA3008F04BC0C053CA3008F047C080537A
:100A90008A3008F043C080E290E00BD190E0909360
:100AA00069008093680081E290E003D190E0909328
:100AB0006B0080936A0082E290E0FBD090E090931C
:100AC0006D0080936C0083E290E0F3D090E090930F
:100AD0006F0080936E00B898C098BA98C298109230
:100AE000790010927800BB9A84E1E2EBF1EF319744
:100AF000F1F700C000008150C1F7BB989EE088E18B
:100B00000FB6F894A89581BD0FBE91BD79DD78949C
:100B1000B99ABD98C598A8954BDCFDCF81E080BF00
:100B2000BACFAA1BBB1B51E107C0AA1FBB1FA61748
:100B3000B70710F0A61BB70B881F991F5A95A9F786
:100B400080959095BC01CD010895A1E21A2EAA1BB3
:100B5000BB1BFD010DC0AA1FBB1FEE1FFF1FA2176D
:100B6000B307E407F50720F0A21BB30BE40BF50B6A
:100B7000661F771F881F991F1A9469F760957095F3
:100B8000809590959B01AC01BD01CF0108956894BB
:100B90000013E894A0E0B0E0EFECF5E01DC0EFEF4B
:100BA000E7F959016A015E23550FEE08FE2C870113
:100BB0009B01AC019E23990F660B762FCB013BD096
:100BC000CDB7DEB7EAE024C02F923F924F925F92FA
:100BD0006F927F928F929F92AF92BF92CF92DF924D
:100BE000EF92FF920F931F93CF93DF93CDB7DEB7B2
:100BF000CA1BDB0B0FB6F894DEBF0FBECDBF099446
:100C00002A88398848885F846E847D848C849B849C
:100C1000AA84B984C884DF80EE80FD800C811B81AA
:100C2000AA81B981CE0FD11D0FB6F894DEBF0FBED9
:100C3000CDBFED010895DF93CF939F92A0E49A2E4C
:100C40000024D001E001F00116950795F794E79490
:100C5000D794C794B794A79448F41068A20FB31F11
:100C6000C41FD51FE61FF71F081E191E220F331FB2
:100C7000441F551F661F771F881F991F9A9421F7DD
:100C80009D01AE01BF01C00111249F90CF91DF9162
:100C90000895FB01DC0102C005900D9241505040C7
:100CA000D8F70895DC0101C06D9341505040E0F742
:100CB0000895E199FECF9FBB8EBBE09A99278DB333
:100CC0000895262FE199FECF1CBA9FBB8EBB2DBB8A
:100CD0000FB6F894E29AE19A0FBE01960895F8943F
:020CE000FFCF44
:100CE200FF5A030006000A033100320033003400C9
:00000001FF
