:100000003DC057C083C055C054C053C052C051C03A
:1000100050C04FC04EC04DC04CC04BC04AC009027A
:1000200012000101008064090400000000000000CB
:1000300012011001FF000008030431C60102010291
:1000400003011A036900320063002D007400690087
:100050006E0079002D0075007300620018036800BF
:10006000610072006200610075006D002E006F007B
:1000700072006700040309040100FF8E11241FBEF3
:10008000CFE5D2E0DEBFCDBF10E0A0E6B0E0E8E112
:10009000FCE002C005900D92AE36B107D9F720E022
:1000A000AEE6B0E001C01D92A23AB207E1F783D4F8
:1000B000B1C5A6CFA82FB92F80E090E041E050EA6B
:1000C000609530E009C02D9182279795879510F0B3
:1000D00084279527305EC8F36F5FA8F30895EADFA1
:1000E0008D939D930895A6E088279927AA9569F096
:1000F0000197E1F3B399FCCFB39BFECF81E0992741
:10010000A6B3019611F0A871D9F70895CF93CFB790
:10011000CF93C395B39BE9F7B39B0BC0B39B09C0C7
:10012000B39B07C0B39B05C0B39B03C0B39B01C087
:10013000D3C00F92DF93C0918500DD27C457DF4FF6
:10014000012EB39B03C0DF910F90E6CF2F930F9347
:100150001F934F932FEF4F6F06B303FB20F95F936D
:100160003F9350E03BE065C016B30126502953FD94
:10017000C89556B3012703FB25F92F7306B3B1F0D9
:100180005027102713FB26F906B22230F0F000C0EA
:1001900016B3012703FB27F90126502906B22430A4
:1001A000E8F54F77206816B30000F6CF50274F7D53
:1001B000206206B2102F000000C006B300265029AE
:1001C000102713FB26F906B2E2CF4F7B06B320645B
:1001D00000C0DACF01265029187106B269F14E7FAE
:1001E0002160012F16B328C0002650294D7F06B28A
:1001F0002260102F29C0012650294B7F06B22460AF
:10020000012F2DC016B301265029477F286000001A
:1002100006B22EC04F7E06B3206130C0422706B31F
:10022000499300265029102706B24FEF13FB20F9FF
:10023000297F16B379F2187159F10126502906B2B7
:10024000012703FB21F9237F06B371F20026502911
:100250003150D0F006B2102713FB22F9277E16B3D7
:1002600051F201265029012703FB06B223F92F7C06
:1002700049F2000006B3102713FB24F90026502989
:1002800006B22F7939F270CF10E21ABF002717C0DB
:100290003B503195C31BD04010E21ABF0881033C8C
:1002A000F9F00B34E9F0209183001981110F12133A
:1002B000EDCF093651F10D3211F0013E39F70093BF
:1002C0008A003F915F914F911F910F912F91DF9184
:1002D0000F90CAB7C5FD1DCFCF91CFBFCF91189555
:1002E00020918A00222369F310918800112321F5BF
:1002F000343022F1309388002093840010918500DF
:100300003BE0311B3093850019C00091880001301B
:100310009CF40AE53091610034FD11C00093610046
:10032000C8E7D0E010C0052710E000C021C00527B5
:1003300010E0C89508BB14C03AE501C032ED032EA9
:10034000C0E0D0E032E017B31861C39A08B317BB1E
:1003500058E120E84FEF20FF052708BB27951795A8
:100360001C3F28F700004552B0F720FF05272795CE
:1003700008BB17951C3FB8F629913A9561F7077E9F
:1003800010918900110F08BBC250D04011F010939A
:10039000830010E21ABF086017B3177E402F477E14
:1003A00054E05A95F1F708BB17BB48BB8ACFCF93EF
:1003B000DF9360918800635067FDB5C08091850030
:1003C000CCE0D0E0C81BD109C457DF4F8091840036
:1003D0008D3209F097C0683009F0A3C083EC809398
:1003E00078008AE58093610010926F0088818076A2
:1003F00039F0CE01EED1982F8F3F09F472C078C04A
:100400009A81109281008981811106C01092820028
:1004100021E830E092E060C0853019F490938900C3
:100420004DC0863009F044C08B81813019F480E3DF
:1004300090E004C0823049F48EE190E09093870010
:100440008093860080E492E130C0833061F59111A1
:1004500009C084E790E0909387008093860080E451
:1004600094E023C0913049F48CE590E090938700AC
:100470008093860080E498E118C0923049F482E4C9
:1004800090E0909387008093860080E49AE10DC00D
:10049000933049F486E690E090938700809386003D
:1004A00080E098E002C080E490E080936F0020C07C
:1004B000883079F0893031F490938B0021E830E076
:1004C00090E00AC091E08A3009F090E021E830E045
:1004D00003C02BE830E091E0309387002093860042
:1004E00007C0888187FD9E8180E880936F0007C0E8
:1004F0008F81811104C08E81891708F4982F909301
:1005000060000FC080916F0087FF0BC0CE0127D124
:100510008F3F21F48EE18093610003C0811110921E
:100520006000109288008091610084FF56C0809125
:1005300060008F3F09F451C0C82F893008F0C8E02F
:100540008C1B809360009091780088E889278093C5
:100550007800CC2389F120916F0027FF08C06C2F11
:1005600089E790E0BBD0C82F893088F525C08091FD
:1005700086009091870026FF0BC0A9E7B0E0FC0140
:100580002C2F280F34913D9331962E13FBCF09C0A9
:10059000DC01E9E7F0E02C2F2E0F3D9131932E1373
:1005A000FCCF2FEF2C0F30E02F5F3F4F820F931FB8
:1005B00090938700809386006C2F89E790E08FDD11
:1005C000CC5FCC3041F08FEF8093600004C08FEFA0
:1005D00080936000CEE1C093610084E196B398718E
:1005E00031F48150D9F71092890010928300C1E054
:1005F0008111C0E080916E008C1729F0C11101C0FB
:1006000097D1C0936E00DF91CF910895AC9A8BB7CC
:1006100080628BBF0895E0916200F0916300319792
:10062000F1F7882321F0BA98B29BFECF01C0BA9AA5
:1006300080916400909165000197F1F70895B89852
:100640000895B89A81E0E7DFFACF0F931F93CF9315
:10065000DF93C7E0D0E0082F10E0C8010C2E02C0E5
:10066000959587950A94E2F780FF02C0E8DF01C004
:10067000B89A81E0D0DF80E0CEDF219770F7DFDF2E
:1006800081E0C9DFC6B380E0C6DF8C2F8095817022
:10069000DF91CF911F910F9108951F93CF93DF9317
:1006A000182FCDDF80E0B7DFD8E0C0E081E0B3DF16
:1006B000CC0FB099C16080E0AEDFD150B9F7112303
:1006C00011F0BDDF01C0B89A81E0A5DF80E0A3DFB3
:1006D000B6DF8C2FDF91CF911F9108950F931F9359
:1006E000CF93DF93082F162F80917400462F50E090
:1006F000813059F520917600309177002417350725
:1007000008F4122F802FEC018C2F801B811788F4A6
:100710002091760030917700215031093093770095
:100720002093760081E0232B09F080E0B6DF8993E7
:10073000EBCF8091750081FF0CC080917600909185
:100740007700892B31F47DDF04C060E070E0802FFA
:1007500044D2812FDF91CF911F910F9108950F9374
:100760001F93CF93DF93162F20917400462F50E0F4
:10077000213031F52091760030917700241735072C
:1007800008F4122F082FEC018C2F801B811760F4C6
:1007900080917600909177000197909377008093F5
:1007A0007600899152DFF0CF8091750081FF0BC0F8
:1007B0008091760090917700892B29F442DF03C065
:1007C00060E070E00AD2812FDF91CF911F910F91ED
:1007D00008958F929F92AF92BF92CF92DF92EF9245
:1007E000FF921F93CF93DF93EC0180E790E090930B
:1007F00087008093860099819230E9F070F4992304
:1008000091F0913009F087C044E050E068E770E073
:1008100080E790E0D9D184E07FC0933009F475C0BF
:100820009830F0F178C08A81809370008B8180933A
:10083000710082E071C06A817B8180E090E022E7F4
:1008400036E040E050E040D149015A01C501B40111
:10085000685A7D4F8F4F9F4F20EB34E040E050E0CF
:100860000FD12830310538F481E090E09093650095
:100870008093640006C027503109309365002093AF
:10088000640080916400909165009695879500972B
:1008900011F481E090E090936300809362003BC08C
:1008A000C19A1C81110F8A8180FD1160898180FDB0
:1008B00003C0C5DE81E0AFDEB89A80E0ACDE812FF8
:1008C000C4DE811108C082E080937400109277002A
:1008D0001092760010C081E0809374008E819F8119
:1008E000909377008093760029812093750021FFF3
:1008F00003C0892B09F4A5DEC19881E02E813F81D8
:10090000232B09F480E0819507C0809174008093C7
:10091000700081E001C080E0DF91CF911F91FF90D6
:10092000EF90DF90CF90BF90AF909F908F90089501
:10093000DF92EF92FF920F931F93CF93DF9308E024
:1009400010E0C0E0D0E8DD2EDC0ED1BECCDB7C01B7
:1009500084E3E81689E0F8060CF4CD2DD695015015
:10096000110989F78FEF8C0F81BF0C2F10E00F5FFB
:100970001F4F21B730E0021713078CF0B4DB84530C
:10098000994097FF03C09195819591098E159F0518
:1009900014F4C1B77C0181B78F5F81BFEACFC1BFBB
:1009A00061B780E090E0DF91CF911F910F91FF90B0
:1009B000EF90DF9021C180E090E016D18F3F09F0E9
:1009C00081BF80E290E010D1D82F81E290E00CD17D
:1009D000C82F82E290E008D1D053DA3008F043C04B
:1009E000C053CA3008F03FC080538A3008F03BC083
:1009F00080E290E0F9D090E09093690080936800E5
:100A000081E290E0F1D090E090936B0080936A00D7
:100A100082E290E0E9D090E090936D0080936C00CA
:100A2000B898C098BA98C298109277001092760041
:100A3000BB9A84E1E2EBF1EF3197F1F700C00000DF
:100A40008150C1F7BB989EE088E10FB6F894A89555
:100A500081BD0FBE91BDDADD7894B99ABD98C59875
:100A6000A895A5DCFDCF61E380E290E0C5D061E30D
:100A700081E290E0C1D063E382E290E0BDD0B8CFE4
:100A8000A1E21A2EAA1BBB1BFD010DC0AA1FBB1F92
:100A9000EE1FFF1FA217B307E407F50720F0A21B04
:100AA000B30BE40BF50B661F771F881F991F1A9471
:100AB00069F760957095809590959B01AC01BD019B
:100AC000CF01089568940013E894A0E0B0E0EAE64E
:100AD000F5E01DC0EFEFE7F959016A015E23550FFC
:100AE000EE08FE2C87019B01AC019E23990F660B3B
:100AF000762FCB013BD0CDB7DEB7EAE024C02F92F2
:100B00003F924F925F926F927F928F929F92AF929D
:100B1000BF92CF92DF92EF92FF920F931F93CF93EA
:100B2000DF93CDB7DEB7CA1BDB0B0FB6F894DEBF81
:100B30000FBECDBF09942A88398848885F846E84A7
:100B40007D848C849B84AA84B984C884DF80EE80F1
:100B5000FD800C811B81AA81B981CE0FD11D0FB6FA
:100B6000F894DEBF0FBECDBFED010895DF93CF93A4
:100B70009F92A0E49A2E0024D001E001F001169586
:100B80000795F794E794D794C794B794A79448F43B
:100B90001068A20FB31FC41FD51FE61FF71F081E42
:100BA000191E220F331F441F551F661F771F881FF2
:100BB000991F9A9421F79D01AE01BF01C001112434
:100BC0009F90CF91DF910895FB01DC0102C0059059
:100BD0000D9241505040D8F70895DC0101C06D934B
:100BE00041505040E0F70895E199FECF9FBB8EBB86
:100BF000E09A99278DB30895262FE199FECF1CBA6C
:100C00009FBB8EBB2DBB0FB6F894E29AE19A0FBE44
:080C100001960895F894FFCF4E
:0E0C1800FF5A030006000803310032003300CB
:00000001FF
